{"bytecode":"608060405234801561001057600080fd5b5060405161086a38038061086a83398101604081905261002f91610062565b60028054336001600160a01b031991821617909155600380549091166001600160a01b0392909216919091179055610090565b600060208284031215610073578081fd5b81516001600160a01b0381168114610089578182fd5b9392505050565b6107cb8061009f6000396000f3fe6080604052600436106100915760003560e01c8063741bef1a11610059578063741bef1a146101205780638da5cb5b1461014257806398d5fdca14610157578063b60d42881461016c578063dc0d3dff1461017457610091565b806309bc33a7146100965780630d8e6e2c146100c15780633ccfd60b146100d65780633e47d6f3146100e05780636e5b6b2814610100575b600080fd5b3480156100a257600080fd5b506100ab610194565b6040516100b89190610681565b60405180910390f35b3480156100cd57600080fd5b506100ab6101d1565b6100de610253565b005b3480156100ec57600080fd5b506100ab6100fb366004610589565b61031c565b34801561010c57600080fd5b506100ab61011b3660046105b7565b61032e565b34801561012c57600080fd5b50610135610364565b6040516100b89190610636565b34801561014e57600080fd5b50610135610373565b34801561016357600080fd5b506100ab610382565b6100de610428565b34801561018057600080fd5b5061013561018f3660046105b7565b6104cb565b60006802b5e3af16b1880000816101a9610382565b9050670de0b6b3a7640000816101bf8285610745565b6101c991906106a2565b935050505090565b6003546040805163054fd4d560e41b815290516000926001600160a01b0316916354fd4d50916004808301926020929190829003018186803b15801561021657600080fd5b505afa15801561022a573d6000803e3d6000fd5b505050506040513d601f19601f8201168201806040525081019061024e91906105cf565b905090565b6002546001600160a01b0316331461026a57600080fd5b60405133904780156108fc02916000818181858888f19350505050158015610296573d6000803e3d6000fd5b5060005b6001548110156102fb576000600182815481106102c757634e487b7160e01b600052603260045260246000fd5b60009182526020808320909101546001600160a01b03168252819052604081205550806102f381610764565b91505061029a565b506040805160008152602081019182905251610319916001916104f5565b50565b60006020819052908152604090205481565b600080610339610382565b90506000670de0b6b3a76400006103508584610745565b61035a91906106a2565b925050505b919050565b6003546001600160a01b031681565b6002546001600160a01b031681565b600080600360009054906101000a90046001600160a01b03166001600160a01b031663feaf968c6040518163ffffffff1660e01b815260040160a06040518083038186803b1580156103d357600080fd5b505afa1580156103e7573d6000803e3d6000fd5b505050506040513d601f19601f8201168201806040525081019061040b91906105e7565b505050915050806402540be40061042291906106c2565b91505090565b6802b5e3af16b18800008061043c3461032e565b10156104635760405162461bcd60e51b815260040161045a9061064a565b60405180910390fd5b336000908152602081905260408120805434929061048290849061068a565b90915550506001805480820182556000919091527fb10e2d527612073b26eecdfd717e6a320cf44b4afac2b0732d9fcbe2b7fa0cf60180546001600160a01b0319163317905550565b600181815481106104db57600080fd5b6000918252602090912001546001600160a01b0316905081565b82805482825590600052602060002090810192821561054a579160200282015b8281111561054a57825182546001600160a01b0319166001600160a01b03909116178255602090920191600190910190610515565b5061055692915061055a565b5090565b5b80821115610556576000815560010161055b565b805169ffffffffffffffffffff8116811461035f57600080fd5b60006020828403121561059a578081fd5b81356001600160a01b03811681146105b0578182fd5b9392505050565b6000602082840312156105c8578081fd5b5035919050565b6000602082840312156105e0578081fd5b5051919050565b600080600080600060a086880312156105fe578081fd5b6106078661056f565b945060208601519350604086015192506060860151915061062a6080870161056f565b90509295509295909350565b6001600160a01b0391909116815260200190565b6020808252601b908201527f596f75206e65656420746f207370656e64206d6f726520455448210000000000604082015260600190565b90815260200190565b6000821982111561069d5761069d61077f565b500190565b6000826106bd57634e487b7160e01b81526012600452602481fd5b500490565b60006001600160ff1b03818413828413808216868404861116156106e8576106e861077f565b600160ff1b848712828116878305891216156107065761070661077f565b8587129250878205871284841616156107215761072161077f565b878505871281841616156107375761073761077f565b505050929093029392505050565b600081600019048311821515161561075f5761075f61077f565b500290565b60006000198214156107785761077861077f565b5060010190565b634e487b7160e01b600052601160045260246000fdfea2646970667358221220e611eb0e4c52c3acbed6bf30fe986bd8d3862bef6969702844325d997e31734a64736f6c63430008000033","bytecodeSha1":"eba26266eddd4fa0b64ce8bf5bf9fe8f81ebfc7a","type":"contract","abi":[{"inputs":[{"internalType":"address","name":"_priceFeed","type":"address"}],"stateMutability":"nonpayable","type":"constructor","name":"constructor"},{"inputs":[{"internalType":"address","name":"","type":"address"}],"name":"addressToAmountFunded","outputs":[{"internalType":"uint256","name":"","type":"uint256"}],"stateMutability":"view","type":"function"},{"inputs":[],"name":"fund","outputs":[],"stateMutability":"payable","type":"function"},{"inputs":[{"internalType":"uint256","name":"","type":"uint256"}],"name":"funders","outputs":[{"internalType":"address","name":"","type":"address"}],"stateMutability":"view","type":"function"},{"inputs":[{"internalType":"uint256","name":"ethAmount","type":"uint256"}],"name":"getConversionRate","outputs":[{"internalType":"uint256","name":"","type":"uint256"}],"stateMutability":"view","type":"function"},{"inputs":[],"name":"getEntranceFee","outputs":[{"internalType":"uint256","name":"","type":"uint256"}],"stateMutability":"view","type":"function"},{"inputs":[],"name":"getPrice","outputs":[{"internalType":"uint256","name":"","type":"uint256"}],"stateMutability":"view","type":"function"},{"inputs":[],"name":"getVersion","outputs":[{"internalType":"uint256","name":"","type":"uint256"}],"stateMutability":"view","type":"function"},{"inputs":[],"name":"owner","outputs":[{"internalType":"address","name":"","type":"address"}],"stateMutability":"view","type":"function"},{"inputs":[],"name":"priceFeed","outputs":[{"internalType":"contract AggregatorV3Interface","name":"","type":"address"}],"stateMutability":"view","type":"function"},{"inputs":[],"name":"withdraw","outputs":[],"stateMutability":"payable","type":"function"}],"compiler":{"version":"0.8.0+commit.c7dfd78e","evm_version":"istanbul","optimizer":{"enabled":true,"runs":200}},"contractName":"FundMe","language":"Solidity","natspec":{"methods":{},"kind":"dev","version":1},"opcodes":"PUSH1 0x80 PUSH1 0x40 MSTORE PUSH1 0x4 CALLDATASIZE LT PUSH2 0x91 JUMPI PUSH1 0x0 CALLDATALOAD PUSH1 0xE0 SHR DUP1 PUSH4 0x741BEF1A GT PUSH2 0x59 JUMPI DUP1 PUSH4 0x741BEF1A EQ PUSH2 0x120 JUMPI DUP1 PUSH4 0x8DA5CB5B EQ PUSH2 0x142 JUMPI DUP1 PUSH4 0x98D5FDCA EQ PUSH2 0x157 JUMPI DUP1 PUSH4 0xB60D4288 EQ PUSH2 0x16C JUMPI DUP1 PUSH4 0xDC0D3DFF EQ PUSH2 0x174 JUMPI PUSH2 0x91 JUMP JUMPDEST DUP1 PUSH4 0x9BC33A7 EQ PUSH2 0x96 JUMPI DUP1 PUSH4 0xD8E6E2C EQ PUSH2 0xC1 JUMPI DUP1 PUSH4 0x3CCFD60B EQ PUSH2 0xD6 JUMPI DUP1 PUSH4 0x3E47D6F3 EQ PUSH2 0xE0 JUMPI DUP1 PUSH4 0x6E5B6B28 EQ PUSH2 0x100 JUMPI JUMPDEST PUSH1 0x0 DUP1 REVERT JUMPDEST CALLVALUE DUP1 ISZERO PUSH2 0xA2 JUMPI PUSH1 0x0 DUP1 REVERT JUMPDEST POP PUSH2 0xAB PUSH2 0x194 JUMP JUMPDEST PUSH1 0x40 MLOAD PUSH2 0xB8 SWAP2 SWAP1 PUSH2 0x681 JUMP JUMPDEST PUSH1 0x40 MLOAD DUP1 SWAP2 SUB SWAP1 RETURN JUMPDEST CALLVALUE DUP1 ISZERO PUSH2 0xCD JUMPI PUSH1 0x0 DUP1 REVERT JUMPDEST POP PUSH2 0xAB PUSH2 0x1D1 JUMP JUMPDEST PUSH2 0xDE PUSH2 0x253 JUMP JUMPDEST STOP JUMPDEST CALLVALUE DUP1 ISZERO PUSH2 0xEC JUMPI PUSH1 0x0 DUP1 REVERT JUMPDEST POP PUSH2 0xAB PUSH2 0xFB CALLDATASIZE PUSH1 0x4 PUSH2 0x589 JUMP JUMPDEST PUSH2 0x31C JUMP JUMPDEST CALLVALUE DUP1 ISZERO PUSH2 0x10C JUMPI PUSH1 0x0 DUP1 REVERT JUMPDEST POP PUSH2 0xAB PUSH2 0x11B CALLDATASIZE PUSH1 0x4 PUSH2 0x5B7 JUMP JUMPDEST PUSH2 0x32E JUMP JUMPDEST CALLVALUE DUP1 ISZERO PUSH2 0x12C JUMPI PUSH1 0x0 DUP1 REVERT JUMPDEST POP PUSH2 0x135 PUSH2 0x364 JUMP JUMPDEST PUSH1 0x40 MLOAD PUSH2 0xB8 SWAP2 SWAP1 PUSH2 0x636 JUMP JUMPDEST CALLVALUE DUP1 ISZERO PUSH2 0x14E JUMPI PUSH1 0x0 DUP1 REVERT JUMPDEST POP PUSH2 0x135 PUSH2 0x373 JUMP JUMPDEST CALLVALUE DUP1 ISZERO PUSH2 0x163 JUMPI PUSH1 0x0 DUP1 REVERT JUMPDEST POP PUSH2 0xAB PUSH2 0x382 JUMP JUMPDEST PUSH2 0xDE PUSH2 0x428 JUMP JUMPDEST CALLVALUE DUP1 ISZERO PUSH2 0x180 JUMPI PUSH1 0x0 DUP1 REVERT JUMPDEST POP PUSH2 0x135 PUSH2 0x18F CALLDATASIZE PUSH1 0x4 PUSH2 0x5B7 JUMP JUMPDEST PUSH2 0x4CB JUMP JUMPDEST PUSH1 0x0 PUSH9 0x2B5E3AF16B1880000 DUP2 PUSH2 0x1A9 PUSH2 0x382 JUMP JUMPDEST SWAP1 POP PUSH8 0xDE0B6B3A7640000 DUP2 PUSH2 0x1BF DUP3 DUP6 PUSH2 0x745 JUMP JUMPDEST PUSH2 0x1C9 SWAP2 SWAP1 PUSH2 0x6A2 JUMP JUMPDEST SWAP4 POP POP POP POP SWAP1 JUMP JUMPDEST PUSH1 0x3 SLOAD PUSH1 0x40 DUP1 MLOAD PUSH4 0x54FD4D5 PUSH1 0xE4 SHL DUP2 MSTORE SWAP1 MLOAD PUSH1 0x0 SWAP3 PUSH1 0x1 PUSH1 0x1 PUSH1 0xA0 SHL SUB AND SWAP2 PUSH4 0x54FD4D50 SWAP2 PUSH1 0x4 DUP1 DUP4 ADD SWAP3 PUSH1 0x20 SWAP3 SWAP2 SWAP1 DUP3 SWAP1 SUB ADD DUP2 DUP7 DUP1 EXTCODESIZE ISZERO DUP1 ISZERO PUSH2 0x216 JUMPI PUSH1 0x0 DUP1 REVERT JUMPDEST POP GAS STATICCALL ISZERO DUP1 ISZERO PUSH2 0x22A JUMPI RETURNDATASIZE PUSH1 0x0 DUP1 RETURNDATACOPY RETURNDATASIZE PUSH1 0x0 REVERT JUMPDEST POP POP POP POP PUSH1 0x40 MLOAD RETURNDATASIZE PUSH1 0x1F NOT PUSH1 0x1F DUP3 ADD AND DUP3 ADD DUP1 PUSH1 0x40 MSTORE POP DUP2 ADD SWAP1 PUSH2 0x24E SWAP2 SWAP1 PUSH2 0x5CF JUMP JUMPDEST SWAP1 POP SWAP1 JUMP JUMPDEST PUSH1 0x2 SLOAD PUSH1 0x1 PUSH1 0x1 PUSH1 0xA0 SHL SUB AND CALLER EQ PUSH2 0x26A JUMPI PUSH1 0x0 DUP1 REVERT JUMPDEST PUSH1 0x40 MLOAD CALLER SWAP1 SELFBALANCE DUP1 ISZERO PUSH2 0x8FC MUL SWAP2 PUSH1 0x0 DUP2 DUP2 DUP2 DUP6 DUP9 DUP9 CALL SWAP4 POP POP POP POP ISZERO DUP1 ISZERO PUSH2 0x296 JUMPI RETURNDATASIZE PUSH1 0x0 DUP1 RETURNDATACOPY RETURNDATASIZE PUSH1 0x0 REVERT JUMPDEST POP PUSH1 0x0 JUMPDEST PUSH1 0x1 SLOAD DUP2 LT ISZERO PUSH2 0x2FB JUMPI PUSH1 0x0 PUSH1 0x1 DUP3 DUP2 SLOAD DUP2 LT PUSH2 0x2C7 JUMPI PUSH4 0x4E487B71 PUSH1 0xE0 SHL PUSH1 0x0 MSTORE PUSH1 0x32 PUSH1 0x4 MSTORE PUSH1 0x24 PUSH1 0x0 REVERT JUMPDEST PUSH1 0x0 SWAP2 DUP3 MSTORE PUSH1 0x20 DUP1 DUP4 KECCAK256 SWAP1 SWAP2 ADD SLOAD PUSH1 0x1 PUSH1 0x1 PUSH1 0xA0 SHL SUB AND DUP3 MSTORE DUP2 SWAP1 MSTORE PUSH1 0x40 DUP2 KECCAK256 SSTORE POP DUP1 PUSH2 0x2F3 DUP2 PUSH2 0x764 JUMP JUMPDEST SWAP2 POP POP PUSH2 0x29A JUMP JUMPDEST POP PUSH1 0x40 DUP1 MLOAD PUSH1 0x0 DUP2 MSTORE PUSH1 0x20 DUP2 ADD SWAP2 DUP3 SWAP1 MSTORE MLOAD PUSH2 0x319 SWAP2 PUSH1 0x1 SWAP2 PUSH2 0x4F5 JUMP JUMPDEST POP JUMP JUMPDEST PUSH1 0x0 PUSH1 0x20 DUP2 SWAP1 MSTORE SWAP1 DUP2 MSTORE PUSH1 0x40 SWAP1 KECCAK256 SLOAD DUP2 JUMP JUMPDEST PUSH1 0x0 DUP1 PUSH2 0x339 PUSH2 0x382 JUMP JUMPDEST SWAP1 POP PUSH1 0x0 PUSH8 0xDE0B6B3A7640000 PUSH2 0x350 DUP6 DUP5 PUSH2 0x745 JUMP JUMPDEST PUSH2 0x35A SWAP2 SWAP1 PUSH2 0x6A2 JUMP JUMPDEST SWAP3 POP POP POP JUMPDEST SWAP2 SWAP1 POP JUMP JUMPDEST PUSH1 0x3 SLOAD PUSH1 0x1 PUSH1 0x1 PUSH1 0xA0 SHL SUB AND DUP2 JUMP JUMPDEST PUSH1 0x2 SLOAD PUSH1 0x1 PUSH1 0x1 PUSH1 0xA0 SHL SUB AND DUP2 JUMP JUMPDEST PUSH1 0x0 DUP1 PUSH1 0x3 PUSH1 0x0 SWAP1 SLOAD SWAP1 PUSH2 0x100 EXP SWAP1 DIV PUSH1 0x1 PUSH1 0x1 PUSH1 0xA0 SHL SUB AND PUSH1 0x1 PUSH1 0x1 PUSH1 0xA0 SHL SUB AND PUSH4 0xFEAF968C PUSH1 0x40 MLOAD DUP2 PUSH4 0xFFFFFFFF AND PUSH1 0xE0 SHL DUP2 MSTORE PUSH1 0x4 ADD PUSH1 0xA0 PUSH1 0x40 MLOAD DUP1 DUP4 SUB DUP2 DUP7 DUP1 EXTCODESIZE ISZERO DUP1 ISZERO PUSH2 0x3D3 JUMPI PUSH1 0x0 DUP1 REVERT JUMPDEST POP GAS STATICCALL ISZERO DUP1 ISZERO PUSH2 0x3E7 JUMPI RETURNDATASIZE PUSH1 0x0 DUP1 RETURNDATACOPY RETURNDATASIZE PUSH1 0x0 REVERT JUMPDEST POP POP POP POP PUSH1 0x40 MLOAD RETURNDATASIZE PUSH1 0x1F NOT PUSH1 0x1F DUP3 ADD AND DUP3 ADD DUP1 PUSH1 0x40 MSTORE POP DUP2 ADD SWAP1 PUSH2 0x40B SWAP2 SWAP1 PUSH2 0x5E7 JUMP JUMPDEST POP POP POP SWAP2 POP POP DUP1 PUSH5 0x2540BE400 PUSH2 0x422 SWAP2 SWAP1 PUSH2 0x6C2 JUMP JUMPDEST SWAP2 POP POP SWAP1 JUMP JUMPDEST PUSH9 0x2B5E3AF16B1880000 DUP1 PUSH2 0x43C CALLVALUE PUSH2 0x32E JUMP JUMPDEST LT ISZERO PUSH2 0x463 JUMPI PUSH1 0x40 MLOAD PUSH3 0x461BCD PUSH1 0xE5 SHL DUP2 MSTORE PUSH1 0x4 ADD PUSH2 0x45A SWAP1 PUSH2 0x64A JUMP JUMPDEST PUSH1 0x40 MLOAD DUP1 SWAP2 SUB SWAP1 REVERT JUMPDEST CALLER PUSH1 0x0 SWAP1 DUP2 MSTORE PUSH1 0x20 DUP2 SWAP1 MSTORE PUSH1 0x40 DUP2 KECCAK256 DUP1 SLOAD CALLVALUE SWAP3 SWAP1 PUSH2 0x482 SWAP1 DUP5 SWAP1 PUSH2 0x68A JUMP JUMPDEST SWAP1 SWAP2 SSTORE POP POP PUSH1 0x1 DUP1 SLOAD DUP1 DUP3 ADD DUP3 SSTORE PUSH1 0x0 SWAP2 SWAP1 SWAP2 MSTORE PUSH32 0xB10E2D527612073B26EECDFD717E6A320CF44B4AFAC2B0732D9FCBE2B7FA0CF6 ADD DUP1 SLOAD PUSH1 0x1 PUSH1 0x1 PUSH1 0xA0 SHL SUB NOT AND CALLER OR SWAP1 SSTORE POP JUMP JUMPDEST PUSH1 0x1 DUP2 DUP2 SLOAD DUP2 LT PUSH2 0x4DB JUMPI PUSH1 0x0 DUP1 REVERT JUMPDEST PUSH1 0x0 SWAP2 DUP3 MSTORE PUSH1 0x20 SWAP1 SWAP2 KECCAK256 ADD SLOAD PUSH1 0x1 PUSH1 0x1 PUSH1 0xA0 SHL SUB AND SWAP1 POP DUP2 JUMP JUMPDEST DUP3 DUP1 SLOAD DUP3 DUP3 SSTORE SWAP1 PUSH1 0x0 MSTORE PUSH1 0x20 PUSH1 0x0 KECCAK256 SWAP1 DUP2 ADD SWAP3 DUP3 ISZERO PUSH2 0x54A JUMPI SWAP2 PUSH1 0x20 MUL DUP3 ADD JUMPDEST DUP3 DUP2 GT ISZERO PUSH2 0x54A JUMPI DUP3 MLOAD DUP3 SLOAD PUSH1 0x1 PUSH1 0x1 PUSH1 0xA0 SHL SUB NOT AND PUSH1 0x1 PUSH1 0x1 PUSH1 0xA0 SHL SUB SWAP1 SWAP2 AND OR DUP3 SSTORE PUSH1 0x20 SWAP1 SWAP3 ADD SWAP2 PUSH1 0x1 SWAP1 SWAP2 ADD SWAP1 PUSH2 0x515 JUMP JUMPDEST POP PUSH2 0x556 SWAP3 SWAP2 POP PUSH2 0x55A JUMP JUMPDEST POP SWAP1 JUMP JUMPDEST JUMPDEST DUP1 DUP3 GT ISZERO PUSH2 0x556 JUMPI PUSH1 0x0 DUP2 SSTORE PUSH1 0x1 ADD PUSH2 0x55B JUMP JUMPDEST DUP1 MLOAD PUSH10 0xFFFFFFFFFFFFFFFFFFFF DUP2 AND DUP2 EQ PUSH2 0x35F JUMPI PUSH1 0x0 DUP1 REVERT JUMPDEST PUSH1 0x0 PUSH1 0x20 DUP3 DUP5 SUB SLT ISZERO PUSH2 0x59A JUMPI DUP1 DUP2 REVERT JUMPDEST DUP2 CALLDATALOAD PUSH1 0x1 PUSH1 0x1 PUSH1 0xA0 SHL SUB DUP2 AND DUP2 EQ PUSH2 0x5B0 JUMPI DUP2 DUP3 REVERT JUMPDEST SWAP4 SWAP3 POP POP POP JUMP JUMPDEST PUSH1 0x0 PUSH1 0x20 DUP3 DUP5 SUB SLT ISZERO PUSH2 0x5C8 JUMPI DUP1 DUP2 REVERT JUMPDEST POP CALLDATALOAD SWAP2 SWAP1 POP JUMP JUMPDEST PUSH1 0x0 PUSH1 0x20 DUP3 DUP5 SUB SLT ISZERO PUSH2 0x5E0 JUMPI DUP1 DUP2 REVERT JUMPDEST POP MLOAD SWAP2 SWAP1 POP JUMP JUMPDEST PUSH1 0x0 DUP1 PUSH1 0x0 DUP1 PUSH1 0x0 PUSH1 0xA0 DUP7 DUP9 SUB SLT ISZERO PUSH2 0x5FE JUMPI DUP1 DUP2 REVERT JUMPDEST PUSH2 0x607 DUP7 PUSH2 0x56F JUMP JUMPDEST SWAP5 POP PUSH1 0x20 DUP7 ADD MLOAD SWAP4 POP PUSH1 0x40 DUP7 ADD MLOAD SWAP3 POP PUSH1 0x60 DUP7 ADD MLOAD SWAP2 POP PUSH2 0x62A PUSH1 0x80 DUP8 ADD PUSH2 0x56F JUMP JUMPDEST SWAP1 POP SWAP3 SWAP6 POP SWAP3 SWAP6 SWAP1 SWAP4 POP JUMP JUMPDEST PUSH1 0x1 PUSH1 0x1 PUSH1 0xA0 SHL SUB SWAP2 SWAP1 SWAP2 AND DUP2 MSTORE PUSH1 0x20 ADD SWAP1 JUMP JUMPDEST PUSH1 0x20 DUP1 DUP3 MSTORE PUSH1 0x1B SWAP1 DUP3 ADD MSTORE PUSH32 0x596F75206E65656420746F207370656E64206D6F726520455448210000000000 PUSH1 0x40 DUP3 ADD MSTORE PUSH1 0x60 ADD SWAP1 JUMP JUMPDEST SWAP1 DUP2 MSTORE PUSH1 0x20 ADD SWAP1 JUMP JUMPDEST PUSH1 0x0 DUP3 NOT DUP3 GT ISZERO PUSH2 0x69D JUMPI PUSH2 0x69D PUSH2 0x77F JUMP JUMPDEST POP ADD SWAP1 JUMP JUMPDEST PUSH1 0x0 DUP3 PUSH2 0x6BD JUMPI PUSH4 0x4E487B71 PUSH1 0xE0 SHL DUP2 MSTORE PUSH1 0x12 PUSH1 0x4 MSTORE PUSH1 0x24 DUP2 REVERT JUMPDEST POP DIV SWAP1 JUMP JUMPDEST PUSH1 0x0 PUSH1 0x1 PUSH1 0x1 PUSH1 0xFF SHL SUB DUP2 DUP5 SGT DUP3 DUP5 SGT DUP1 DUP3 AND DUP7 DUP5 DIV DUP7 GT AND ISZERO PUSH2 0x6E8 JUMPI PUSH2 0x6E8 PUSH2 0x77F JUMP JUMPDEST PUSH1 0x1 PUSH1 0xFF SHL DUP5 DUP8 SLT DUP3 DUP2 AND DUP8 DUP4 SDIV DUP10 SLT AND ISZERO PUSH2 0x706 JUMPI PUSH2 0x706 PUSH2 0x77F JUMP JUMPDEST DUP6 DUP8 SLT SWAP3 POP DUP8 DUP3 SDIV DUP8 SLT DUP5 DUP5 AND AND ISZERO PUSH2 0x721 JUMPI PUSH2 0x721 PUSH2 0x77F JUMP JUMPDEST DUP8 DUP6 SDIV DUP8 SLT DUP2 DUP5 AND AND ISZERO PUSH2 0x737 JUMPI PUSH2 0x737 PUSH2 0x77F JUMP JUMPDEST POP POP POP SWAP3 SWAP1 SWAP4 MUL SWAP4 SWAP3 POP POP POP JUMP JUMPDEST PUSH1 0x0 DUP2 PUSH1 0x0 NOT DIV DUP4 GT DUP3 ISZERO ISZERO AND ISZERO PUSH2 0x75F JUMPI PUSH2 0x75F PUSH2 0x77F JUMP JUMPDEST POP MUL SWAP1 JUMP JUMPDEST PUSH1 0x0 PUSH1 0x0 NOT DUP3 EQ ISZERO PUSH2 0x778 JUMPI PUSH2 0x778 PUSH2 0x77F JUMP JUMPDEST POP PUSH1 0x1 ADD SWAP1 JUMP JUMPDEST PUSH4 0x4E487B71 PUSH1 0xE0 SHL PUSH1 0x0 MSTORE PUSH1 0x11 PUSH1 0x4 MSTORE PUSH1 0x24 PUSH1 0x0 REVERT INVALID LOG2 PUSH5 0x6970667358 0x22 SLT KECCAK256 0xE6 GT 0xEB 0xE 0x4C MSTORE 0xC3 0xAC 0xBE 0xD6 0xBF ADDRESS INVALID SWAP9 PUSH12 0xD8D3862BEF6969702844325D SWAP10 PUSH31 0x31734A64736F6C634300080000330000000000000000000000000000000000 ","sha1":"65248194b5065b25b779431208dd02710797ecd2","source":"// SPDX-License-Identifier: MIT\n\npragma solidity ^0.8.0;\n\nimport \"@chainlink/contracts/src/v0.8/interfaces/AggregatorV3Interface.sol\";\n\ncontract FundMe {\n    mapping(address => uint256) public addressToAmountFunded;\n    address[] public funders;\n    address public owner;\n    AggregatorV3Interface public priceFeed;\n\n    constructor(address _priceFeed) {\n        owner = msg.sender;\n        priceFeed = AggregatorV3Interface(_priceFeed);\n    }\n\n    function fund() public payable {\n        uint256 minimumUSD = 50 * 10**18;\n        require(\n            getConversionRate(msg.value) >= minimumUSD,\n            \"You need to spend more ETH!\"\n        );\n        addressToAmountFunded[msg.sender] += msg.value;\n        funders.push(msg.sender);\n    }\n\n    function getVersion() public view returns (uint256) {\n        return priceFeed.version();\n    }\n\n    function getPrice() public view returns (uint256) {\n        (, int256 answer, , , ) = priceFeed.latestRoundData();\n        return uint256(answer * 10000000000);\n    }\n\n    // 1000000000\n    function getConversionRate(uint256 ethAmount)\n        public\n        view\n        returns (uint256)\n    {\n        uint256 ethPrice = getPrice();\n        uint256 ethAmountInUsd = (ethPrice * ethAmount) / 1000000000000000000;\n        return ethAmountInUsd;\n    }\n\n    function getEntranceFee() public view returns (uint256) {\n        // mimimumUSD\n        uint256 mimimumUSD = 50 * 10**18;\n        uint256 price = getPrice();\n        uint256 precision = 1 * 10**18;\n        return (mimimumUSD * precision) / price;\n    }\n\n    modifier onlyOwner() {\n        require(msg.sender == owner);\n        _;\n    }\n\n    function withdraw() public payable onlyOwner {\n        payable(msg.sender).transfer(address(this).balance);\n\n        for (\n            uint256 funderIndex = 0;\n            funderIndex < funders.length;\n            funderIndex++\n        ) {\n            address funder = funders[funderIndex];\n            addressToAmountFunded[funder] = 0;\n        }\n        funders = new address[](0);\n    }\n}\n","sourcePath":"contracts/FundMe.sol","deployment":{"address":"0x99531DE50Df94cD0315BA14Fe27b396417b01b48","chainid":"1337","blockHeight":5}}